{
  "address": "0x266cC078750D93FDB44EAb1035309F085A43C876",
  "abi": [
    {
      "inputs": [
        {
          "internalType": "address",
          "name": "_token",
          "type": "address"
        },
        {
          "internalType": "address",
          "name": "_feeAccount",
          "type": "address"
        },
        {
          "internalType": "uint256",
          "name": "_feePercent",
          "type": "uint256"
        }
      ],
      "stateMutability": "nonpayable",
      "type": "constructor"
    },
    {
      "anonymous": false,
      "inputs": [
        {
          "indexed": true,
          "internalType": "uint256",
          "name": "escrowId",
          "type": "uint256"
        },
        {
          "indexed": true,
          "internalType": "address",
          "name": "user",
          "type": "address"
        },
        {
          "indexed": false,
          "internalType": "uint256",
          "name": "amount",
          "type": "uint256"
        },
        {
          "indexed": false,
          "internalType": "string",
          "name": "str",
          "type": "string"
        }
      ],
      "name": "EscrowCreated",
      "type": "event"
    },
    {
      "anonymous": false,
      "inputs": [
        {
          "indexed": true,
          "internalType": "uint256",
          "name": "escrowId",
          "type": "uint256"
        },
        {
          "indexed": true,
          "internalType": "address",
          "name": "user",
          "type": "address"
        },
        {
          "indexed": false,
          "internalType": "uint256",
          "name": "amount",
          "type": "uint256"
        },
        {
          "indexed": false,
          "internalType": "string",
          "name": "str",
          "type": "string"
        }
      ],
      "name": "EscrowFilled",
      "type": "event"
    },
    {
      "anonymous": false,
      "inputs": [
        {
          "indexed": true,
          "internalType": "uint256",
          "name": "escrowId",
          "type": "uint256"
        },
        {
          "indexed": false,
          "internalType": "address",
          "name": "winner",
          "type": "address"
        },
        {
          "indexed": false,
          "internalType": "uint256",
          "name": "amount",
          "type": "uint256"
        },
        {
          "indexed": false,
          "internalType": "address",
          "name": "feeRecipient",
          "type": "address"
        },
        {
          "indexed": false,
          "internalType": "uint256",
          "name": "feeAmount",
          "type": "uint256"
        }
      ],
      "name": "EscrowResolved",
      "type": "event"
    },
    {
      "inputs": [
        {
          "internalType": "uint256",
          "name": "amount",
          "type": "uint256"
        },
        {
          "internalType": "string",
          "name": "str",
          "type": "string"
        }
      ],
      "name": "createEscrow",
      "outputs": [],
      "stateMutability": "nonpayable",
      "type": "function"
    },
    {
      "inputs": [
        {
          "internalType": "uint256",
          "name": "",
          "type": "uint256"
        }
      ],
      "name": "escrows",
      "outputs": [
        {
          "internalType": "address",
          "name": "user1",
          "type": "address"
        },
        {
          "internalType": "string",
          "name": "string1",
          "type": "string"
        },
        {
          "internalType": "uint256",
          "name": "amount",
          "type": "uint256"
        },
        {
          "internalType": "bool",
          "name": "filled",
          "type": "bool"
        }
      ],
      "stateMutability": "view",
      "type": "function"
    },
    {
      "inputs": [],
      "name": "feeAccount",
      "outputs": [
        {
          "internalType": "address",
          "name": "",
          "type": "address"
        }
      ],
      "stateMutability": "view",
      "type": "function"
    },
    {
      "inputs": [],
      "name": "feePercent",
      "outputs": [
        {
          "internalType": "uint256",
          "name": "",
          "type": "uint256"
        }
      ],
      "stateMutability": "view",
      "type": "function"
    },
    {
      "inputs": [
        {
          "internalType": "uint256",
          "name": "escrowId",
          "type": "uint256"
        },
        {
          "internalType": "string",
          "name": "str",
          "type": "string"
        }
      ],
      "name": "fillEscrow",
      "outputs": [],
      "stateMutability": "nonpayable",
      "type": "function"
    },
    {
      "inputs": [],
      "name": "nextEscrowId",
      "outputs": [
        {
          "internalType": "uint256",
          "name": "",
          "type": "uint256"
        }
      ],
      "stateMutability": "view",
      "type": "function"
    },
    {
      "inputs": [],
      "name": "token",
      "outputs": [
        {
          "internalType": "contract ERC20",
          "name": "",
          "type": "address"
        }
      ],
      "stateMutability": "view",
      "type": "function"
    }
  ],
  "transactionHash": "0xaefde4d005578976e515660813c7f55c95160a0076e1a77d5f6e2e68c68d84d9",
  "args": [
    "0x17829D7F8bD71aC3f63F034eb31f645ad2409fA8",
    "0x1EC500955B17b072e094d483d06560927b46C9B1",
    10
  ],
  "numDeployments": 1,
  "solcInputHash": "6ead9e910222b0187227208c4f985b98",
  "bytecode": "0x608060405234801561001057600080fd5b50604051610cfb380380610cfb83398101604081905261002f916100e4565b60648111156100905760405162461bcd60e51b815260206004820152602360248201527f4665652070657263656e742063616e6e6f74206265206d6f7265207468616e2060448201526203130360ec1b606482015260840160405180910390fd5b600080546001600160a01b039485166001600160a01b0319918216179091556001805493909416921691909117909155600255610120565b80516001600160a01b03811681146100df57600080fd5b919050565b6000806000606084860312156100f957600080fd5b610102846100c8565b9250610110602085016100c8565b9150604084015190509250925092565b610bcc8061012f6000396000f3fe608060405234801561001057600080fd5b506004361061007d5760003560e01c80637fd6f15c1161005b5780637fd6f15c146100ee578063815db6d41461010557806389cb29dd14610118578063fc0c546a1461012157600080fd5b8063012f52ee14610082578063138fcf92146100ae57806365e17c9d146100c3575b600080fd5b6100956100903660046107b2565b610134565b6040516100a59493929190610811565b60405180910390f35b6100c16100bc366004610863565b6101f3565b005b6001546100d6906001600160a01b031681565b6040516001600160a01b0390911681526020016100a5565b6100f760025481565b6040519081526020016100a5565b6100c1610113366004610863565b6103c1565b6100f760045481565b6000546100d6906001600160a01b031681565b600360205260009081526040902080546001820180546001600160a01b0390921692916101609061091e565b80601f016020809104026020016040519081016040528092919081815260200182805461018c9061091e565b80156101d95780601f106101ae576101008083540402835291602001916101d9565b820191906000526020600020905b8154815290600101906020018083116101bc57829003601f168201915b50505050600283015460039093015491929160ff16905084565b600082116102485760405162461bcd60e51b815260206004820152601d60248201527f416d6f756e74206d7573742062652067726561746572207468616e203000000060448201526064015b60405180910390fd5b61025382600261096e565b600054604051636eb1769f60e11b81523360048201523060248201526001600160a01b039091169063dd62ed3e90604401602060405180830381865afa1580156102a1573d6000803e3d6000fd5b505050506040513d601f19601f820116820180604052508101906102c5919061098b565b116102e25760405162461bcd60e51b815260040161023f906109a4565b60408051608081018252338152602080820184815282840186905260006060840181905260045481526003909252929020815181546001600160a01b0319166001600160a01b03909116178155915190919060018201906103439082610a3e565b5060408281015160028301556060909201516003909101805460ff191691151591909117905560045490513391907f70671f561c45e0ebd52b61b0b5b5bc90756cbe42cb834a12f813589a909d5562906103a09086908690610afe565b60405180910390a3600480549060006103b883610b1f565b91905055505050565b60008281526003602081905260409091209081015460ff161561041e5760405162461bcd60e51b8152602060048201526015602482015274115cd8dc9bddc8185b1c9958591e48199a5b1b1959605a1b604482015260640161023f565b600081600201546002610431919061096e565b90506000606460025483610445919061096e565b61044f9190610b38565b905060008184600201546104639190610b5a565b600054604051636eb1769f60e11b815233600482015230602482015291925084916001600160a01b039091169063dd62ed3e90604401602060405180830381865afa1580156104b6573d6000803e3d6000fd5b505050506040513d601f19601f820116820180604052508101906104da919061098b565b116104f75760405162461bcd60e51b815260040161023f906109a4565b60008460010180546105089061091e565b9050865110156105225784546001600160a01b0316610524565b335b905060008560010180546105379061091e565b9050875110156105475733610553565b85546001600160a01b03165b6000546001546040516323b872dd60e01b81526001600160a01b03808516600483015291821660248201526044810188905292935016906323b872dd906064016020604051808303816000875af11580156105b2573d6000803e3d6000fd5b505050506040513d601f19601f820116820180604052508101906105d69190610b6d565b61062d5760405162461bcd60e51b815260206004820152602260248201527f466565207472616e7366657220746f20666565206163636f756e74206661696c604482015261195960f21b606482015260840161023f565b6000546040516323b872dd60e01b81526001600160a01b038381166004830152848116602483015260448201869052909116906323b872dd906064016020604051808303816000875af1158015610688573d6000803e3d6000fd5b505050506040513d601f19601f820116820180604052508101906106ac9190610b6d565b6106f85760405162461bcd60e51b815260206004820152601f60248201527f546f6b656e207472616e7366657220746f2077696e6e6572206661696c656400604482015260640161023f565b60038601805460ff1916600190811790915554604080516001600160a01b03858116825260208201879052909216908201526060810185905288907f73c50d3023fc53af1a2473107e835ad604cb871ad9799ed2ccc0ff37e83d64b49060800160405180910390a2336001600160a01b0316887f09fbfd49ff4802190649c11352887d1e7ac60718641fb691cb83e65d97a4379988600201548a6040516107a0929190610afe565b60405180910390a35050505050505050565b6000602082840312156107c457600080fd5b5035919050565b6000815180845260005b818110156107f1576020818501810151868301820152016107d5565b506000602082860101526020601f19601f83011685010191505092915050565b6001600160a01b0385168152608060208201819052600090610835908301866107cb565b60408301949094525090151560609091015292915050565b634e487b7160e01b600052604160045260246000fd5b6000806040838503121561087657600080fd5b82359150602083013567ffffffffffffffff8082111561089557600080fd5b818501915085601f8301126108a957600080fd5b8135818111156108bb576108bb61084d565b604051601f8201601f19908116603f011681019083821181831017156108e3576108e361084d565b816040528281528860208487010111156108fc57600080fd5b8260208601602083013760006020848301015280955050505050509250929050565b600181811c9082168061093257607f821691505b60208210810361095257634e487b7160e01b600052602260045260246000fd5b50919050565b634e487b7160e01b600052601160045260246000fd5b808202811582820484141761098557610985610958565b92915050565b60006020828403121561099d57600080fd5b5051919050565b6020808252602b908201527f546f6b656e206d757374206861766520616c6c6f77616e6365206f766572207360408201526a1d185ad948185b5bdd5b9d60aa1b606082015260800190565b601f821115610a3957600081815260208120601f850160051c81016020861015610a165750805b601f850160051c820191505b81811015610a3557828155600101610a22565b5050505b505050565b815167ffffffffffffffff811115610a5857610a5861084d565b610a6c81610a66845461091e565b846109ef565b602080601f831160018114610aa15760008415610a895750858301515b600019600386901b1c1916600185901b178555610a35565b600085815260208120601f198616915b82811015610ad057888601518255948401946001909101908401610ab1565b5085821015610aee5787850151600019600388901b60f8161c191681555b5050505050600190811b01905550565b828152604060208201526000610b1760408301846107cb565b949350505050565b600060018201610b3157610b31610958565b5060010190565b600082610b5557634e487b7160e01b600052601260045260246000fd5b500490565b8181038181111561098557610985610958565b600060208284031215610b7f57600080fd5b81518015158114610b8f57600080fd5b939250505056fea2646970667358221220a196333b3daaa35124b60b4a5eb014d0861b6226f3cb9034999c61b8dfcd0ea964736f6c63430008140033",
  "devdoc": {
    "kind": "dev",
    "methods": {},
    "version": 1
  },
  "userdoc": {
    "kind": "user",
    "methods": {},
    "version": 1
  },
  "storageLayout": {
    "storage": [
      {
        "astId": 791,
        "contract": "contracts/EscrowContract.sol:EscrowContract",
        "label": "token",
        "offset": 0,
        "slot": "0",
        "type": "t_contract(ERC20)651"
      },
      {
        "astId": 793,
        "contract": "contracts/EscrowContract.sol:EscrowContract",
        "label": "feeAccount",
        "offset": 0,
        "slot": "1",
        "type": "t_address"
      },
      {
        "astId": 795,
        "contract": "contracts/EscrowContract.sol:EscrowContract",
        "label": "feePercent",
        "offset": 0,
        "slot": "2",
        "type": "t_uint256"
      },
      {
        "astId": 809,
        "contract": "contracts/EscrowContract.sol:EscrowContract",
        "label": "escrows",
        "offset": 0,
        "slot": "3",
        "type": "t_mapping(t_uint256,t_struct(Escrow)804_storage)"
      },
      {
        "astId": 811,
        "contract": "contracts/EscrowContract.sol:EscrowContract",
        "label": "nextEscrowId",
        "offset": 0,
        "slot": "4",
        "type": "t_uint256"
      }
    ],
    "types": {
      "t_address": {
        "encoding": "inplace",
        "label": "address",
        "numberOfBytes": "20"
      },
      "t_bool": {
        "encoding": "inplace",
        "label": "bool",
        "numberOfBytes": "1"
      },
      "t_contract(ERC20)651": {
        "encoding": "inplace",
        "label": "contract ERC20",
        "numberOfBytes": "20"
      },
      "t_mapping(t_uint256,t_struct(Escrow)804_storage)": {
        "encoding": "mapping",
        "key": "t_uint256",
        "label": "mapping(uint256 => struct EscrowContract.Escrow)",
        "numberOfBytes": "32",
        "value": "t_struct(Escrow)804_storage"
      },
      "t_string_storage": {
        "encoding": "bytes",
        "label": "string",
        "numberOfBytes": "32"
      },
      "t_struct(Escrow)804_storage": {
        "encoding": "inplace",
        "label": "struct EscrowContract.Escrow",
        "members": [
          {
            "astId": 797,
            "contract": "contracts/EscrowContract.sol:EscrowContract",
            "label": "user1",
            "offset": 0,
            "slot": "0",
            "type": "t_address"
          },
          {
            "astId": 799,
            "contract": "contracts/EscrowContract.sol:EscrowContract",
            "label": "string1",
            "offset": 0,
            "slot": "1",
            "type": "t_string_storage"
          },
          {
            "astId": 801,
            "contract": "contracts/EscrowContract.sol:EscrowContract",
            "label": "amount",
            "offset": 0,
            "slot": "2",
            "type": "t_uint256"
          },
          {
            "astId": 803,
            "contract": "contracts/EscrowContract.sol:EscrowContract",
            "label": "filled",
            "offset": 0,
            "slot": "3",
            "type": "t_bool"
          }
        ],
        "numberOfBytes": "128"
      },
      "t_uint256": {
        "encoding": "inplace",
        "label": "uint256",
        "numberOfBytes": "32"
      }
    }
  }
}